:100000000C94DF000C9407010C9407010C94070179
:100010000C9407010C9407010C9407010C94070140
:100020000C9407010C9407010C9407010C94070130
:100030000C9407010C9407010C9407010C94070120
:100040000C948D050C9407010C945B050C943505FC
:100050000C9407010C9407010C9407010C94070100
:100060000C9407010C94070100407A10F35A00A089
:10007000724E18090010A5D4E80000E87648170071
:1000800000E40B54020000CA9A3B000000E1F505B1
:10009000000080969800000040420F000000A086FB
:1000A00001000000102700000000E803000000002D
:1000B0006400000000000A000000000001000000D1
:1000C00000002C76D888DC674F0823DFC1DFAE59EB
:1000D000E1B1B796E5E3E453C63AE651997696E87E
:1000E000E6C28426EB898C9B62ED407C6FFCEFBC02
:1000F0009C9F40F2BAA56FA5F490055A2AF75C932D
:100100006B6CF9676DC11BFCE0E40D47FEF520E662
:10011000B500D0ED902E0300943577050080841E45
:10012000080000204E0A000000C80C333333330FA0
:10013000986E12831141EF8D2114893BE65516CF3D
:10014000FEE6DB18D1844B381BF77C1D901DA4BB49
:10015000E424203284725E228100C9F124ECA1E5FE
:100160003D2700000000240027002A0000000000B6
:10017000250028002B0000000008000201000003F9
:100180000407000000000000000000000000230041
:1001900026002900040404040404040402020202E8
:1001A000020203030303030301020408102040803A
:1001B0000102040810200102040810201C0611246A
:1001C0001FBECFEFD8E0DEBFCDBF22E0A6E5B1E095
:1001D00001C01D92AD30B207E1F711E0A0E0B1E03F
:1001E000EAE2F0E202C005900D92A635B107D9F718
:1001F00010E0CFEDD0E004C02197FE010E941B0E5D
:10020000CE3DD107C9F70E9466060C9413100C94DA
:100210000000AF92BF92CF92DF92EF92FF920F93C6
:100220001F93CF93DF936C017B018B01040F151F8C
:10023000EB015E01AE18BF08C017D10759F06991F4
:10024000D601ED91FC910190F081E02DC601099558
:10025000892B79F7C501DF91CF911F910F91FF9005
:10026000EF90DF90CF90BF90AF900895FC01538D39
:10027000448D252F30E0842F90E0821B930B541780
:1002800010F0CF96089501970895FC01918D828D0D
:10029000981761F0A28DAE0FBF2FB11D5D968C91A6
:1002A000928D9F5F9F73928F90E008958FEF9FEFE5
:1002B0000895FC01918D828D981731F0828DE80FA1
:1002C000F11D858D90E008958FEF9FEF0895FC015B
:1002D000918D228D892F90E0805C9F4F821B910928
:1002E0008F73992708958FE591E00E94670121E0BF
:1002F000892B09F420E0822F089580E090E0892B7B
:1003000029F00E94730181110C9400000895FC01F2
:10031000A48DA80FB92FB11DA35ABF4F2C91848D66
:1003200090E001968F739927848FA689B7892C93C3
:10033000A089B1898C91837080648C93938D848D16
:10034000981306C00288F389E02D80818F7D808319
:100350000895EF92FF920F931F93CF93DF93EC01D9
:1003600081E0888F9B8D8C8D98131AC0E889F9895C
:10037000808185FF15C09FB7F894EE89FF8960835F
:10038000E889F98980818370806480839FBF81E0E0
:1003900090E0DF91CF911F910F91FF90EF90089522
:1003A000F62E0B8D10E00F5F1F4F0F731127E02EFD
:1003B0008C8D8E110CC00FB607FCFACFE889F98935
:1003C000808185FFF5CFCE010E948701F1CFEB8DB3
:1003D000EC0FFD2FF11DE35AFF4FF0829FB7F89409
:1003E0000B8FEA89FB8980818062CFCFCF93DF9327
:1003F000EC01888D8823B9F0AA89BB89E889F9893D
:100400008C9185FD03C0808186FD0DC00FB607FC71
:10041000F7CF8C9185FFF2CF808185FFEDCFCE01A4
:100420000E948701E9CFDF91CF910895833081F059
:1004300028F4813099F08230A9F008958730A9F02E
:100440008830C9F08430B1F4809180008F7D03C082
:10045000809180008F7780938000089584B58F7796
:1004600084BD089584B58F7DFBCF8091B0008F77D8
:100470008093B00008958091B0008F7DF9CFCF9325
:10048000DF93282F30E0F901EA58FE4F8491F901FB
:10049000E855FE4FD491F901EC56FE4FC491CC23A0
:1004A000A1F081110E941602EC2FF0E0EE0FFF1F69
:1004B000E657FE4FA591B491EC91ED2381E090E0D9
:1004C00009F480E0DF91CF91089580E090E0FACFC9
:1004D0001F93CF93DF93282F30E0F901EA58FE4FA6
:1004E0008491F901E855FE4FD491F901EC56FE4F85
:1004F000C491CC23A9F0162F81110E941602EC2F73
:10050000F0E0EE0FFF1FE459FE4FA591B4918FB7B5
:10051000F894EC91111108C0D095DE23DC938FBFC5
:10052000DF91CF911F910895DE2BF8CFCF93DF930A
:1005300090E0FC01E855FE4F24918C569E4FFC0143
:1005400084918823D1F090E0880F991FFC01EE5927
:10055000FE4FA591B491FC01E459FE4FC591D49191
:1005600061110EC09FB7F8948C91E22FE0958E2315
:100570008C932881E223E8839FBFDF91CF91089578
:100580008FB7F894EC91E22BEC938FBFF6CF3FB787
:10059000F89480915B0190915C01A0915D01B09114
:1005A0005E0126B5A89B05C02F3F19F00196A11D3D
:1005B000B11D3FBFBA2FA92F982F8827BC01CD01AD
:1005C000620F711D811D911D42E0660F771F881F0C
:1005D000991F4A95D1F708958F929F92AF92BF923B
:1005E000CF92DF92EF92FF924B015C010E94C70213
:1005F0006B017C010E94C7026C197D098E099F095D
:10060000683E734081059105A8F321E0821A9108A4
:10061000A108B10888EEC80E83E0D81EE11CF11CC9
:1006200081149104A104B10429F7FF90EF90DF90A9
:10063000CF90BF90AF909F908F9008950895FF92B4
:100640000F931F93CF93DF93F82E062FC7E0D0E0D0
:1006500010E061E0802F0E9468028F2D0E943F020F
:100660000C2E01C0880F0A94EAF7182B60E0802F47
:100670000E946802219768F7812FDF91CF911F9127
:100680000F91FF900895EF92FF921F93CF93DF9306
:100690008091FF010E943F02892BD1F76091FE01FA
:1006A0008091FF010E941F03D82F6091FE0180916D
:1006B000FF010E941F03C82F6091FE018091FF017E
:1006C0000E941F03182FF12CE12C809100028E153F
:1006D0001F0479F070F061E08091FE010E946802D1
:1006E00060E08091FE010E9468028FEFE81AF80A2C
:1006F000ECCFD095C09510952FEFD7FD09C0DF370F
:10070000E1F4CF3FD1F421E01F3F09F020E0219533
:100710006C2F70E090E080E0982F872F762F66276F
:100720008D2B612B922B6F5F7F4F8F4F9F4FDF91F0
:10073000CF911F91FF90EF90089520E0E9CFCF92E5
:10074000DF92EF92FF92CF93CAE0C12CD12C7601B9
:100750000E944303C60ED71EE81EF91EC150C1F702
:10076000C701B6012AE030E040E050E00E94FC0DF5
:10077000CA01B9010E94670B0E949A0D60930102A1
:10078000709302028093030290930402CF91FF9032
:10079000EF90DF90CF9008950F931F9390E0FC01AE
:1007A000E855FE4F6491FC01EC56FE4FE491F0E0F9
:1007B000EE0FFF1FE657FE4F8591949100E412E47F
:1007C0002FE030E0462F0E94D705611571058105A5
:1007D000910529F06F5F7F4F8F4F9F4F9F701F9143
:1007E0000F910895FC0101900020E9F73197AF01C6
:1007F000481B590BBC018FE591E00C9409018F92C5
:100800009F92AF92BF920F931F93CF93DF93CDB779
:10081000DEB7A1970FB6F894DEBF0FBECDBF19A209
:10082000423008F44AE08E010F5D1F4F842E912C58
:10083000B12CA12CA50194010E94DA0DE62FB9017B
:10084000CA01EA30F4F4E05DD801EE938D01232B68
:10085000242B252B79F790E080E0109719F0CD013B
:100860000E94F203A1960FB6F894DEBF0FBECDBF73
:10087000DF91CF911F910F91BF90AF909F908F907C
:100880000895E95CE1CFCF93DF93EC0188819981F2
:10089000009711F00E94BD0E198218821D821C82E1
:1008A0001B821A82DF91CF9108950C94BD0E0F9395
:1008B0001F93CF93DF93EC0188819981009759F0C2
:1008C0002A813B812617370730F081E0DF91CF91F5
:1008D0001F910F9108958B016F5F7F4F0E94460F0C
:1008E000009759F0998388831B830A832C813D816B
:1008F000232B59F7FC011082E8CF80E0E7CFEF927D
:10090000FF920F931F93CF93DF93EC01FB01E080E5
:10091000F180E114F10411F1048115810115110533
:10092000A9F08C819D81080F191FB801CE010E948A
:100930005704882399F0288139818C819D81B701E2
:10094000820F931F0E940C101D830C83CE01DF9138
:10095000CF911F910F91FF90EF900895CE010E94CB
:100960004304F4CFEF92FF920F931F93CF93DF9343
:1009700000D0CDB7DEB78C018CE289831A82F801F2
:10098000E480F580FFEFEF1AFF0AB701C8010E946B
:1009900057048823C9F0F801208131818481958131
:1009A000BE016F5F7F4F820F931F0E940C10F801F2
:1009B000F582E482C8010F900F90DF91CF911F91D3
:1009C0000F91FF90EF900895C8010E944304F2CF69
:1009D000CF92DF92EF92FF920F931F93CF93DF930B
:1009E000CDB7DEB7A1970FB6F894DEBF0FBECDBF6F
:1009F0007C01CB01BA01F7011182108213821282AD
:100A0000158214828E010F5F1F4F22E044E00E9486
:100A10000B096C01009771F0FC0101900020E9F7CF
:100A200031978F01081B190BB801C7010E945704A9
:100A3000811112C0C7010E944304A1960FB6F89419
:100A4000DEBF0FBECDBFDF91CF911F910F91FF9001
:100A5000EF90DF90CF900895F70115830483B601DE
:100A6000808191810E940C10E8CF1F920F920FB6E7
:100A70000F9211242F933F934F935F936F937F9324
:100A80008F939F93AF93BF93EF93FF938FE591E085
:100A90000E948701FF91EF91BF91AF919F918F913C
:100AA0007F916F915F914F913F912F910F900FBE6A
:100AB0000F901F9018951F920F920FB60F9211244E
:100AC0002F938F939F93EF93FF93E0916F01F0919A
:100AD00070018081E0917501F091760182FD1BC06B
:100AE0009081809178018F5F8F73209179018217B7
:100AF00041F0E0917801F0E0E15AFE4F958F80934C
:100B00007801FF91EF919F918F912F910F900FBEE0
:100B10000F901F9018958081F4CF1F920F920FB6FF
:100B20000F9211242F933F938F939F93AF93BF9373
:100B30008091570190915801A0915901B0915A01AB
:100B40003091560123E0230F2D3758F50196A11D52
:100B5000B11D209356018093570190935801A093A3
:100B60005901B0935A0180915B0190915C01A09171
:100B70005D01B0915E010196A11DB11D80935B01E5
:100B800090935C01A0935D01B0935E01BF91AF9122
:100B90009F918F913F912F910F900FBE0F901F90BB
:100BA000189526E8230F0296A11DB11DD2CFCF9232
:100BB000DF92EF92FF920F931F93E82FF92F05C05A
:100BC000015011092109310961F19081962394178F
:100BD000B9F305C0015011092109310911F19081C2
:100BE00096239413F7CFC12CD12CE12CF12C0AC001
:100BF0008FEFC81AD80AE80AF80A0C151D052E0549
:100C00003F0579F080818623841791F36C2D7D2D2B
:100C10008E2D9F2D1F910F91FF90EF90DF90CF9021
:100C2000089560E070E080E090E01F910F91FF90E8
:100C3000EF90DF90CF900895CF93DF93EFE5F1E051
:100C40001382128288EE93E0A0E0B0E08483958363
:100C5000A683B7838BE091E09183808385EC90E05D
:100C60009587848784EC90E09787868780EC90E076
:100C7000918B808B81EC90E0938B828B82EC90E067
:100C8000958B848B86EC90E0978B868B118E128EE1
:100C9000138E148ECCEFD1E08DE191E0998388839F
:100CA00083E08A8382E08B8361E083E00E94960286
:100CB00060E08B810E94960281E08C8360E08A81F3
:100CC0000E946802DF91CF910C944303CF93DF938E
:100CD000CDB7DEB768970FB6F894DEBF0FBECDBFB5
:100CE000789484B5826084BD84B5816084BD85B507
:100CF000826085BD85B5816085BD80916E00816013
:100D000080936E00109281008091810082608093B8
:100D100081008091810081608093810080918000BA
:100D20008160809380008091B10084608093B100E5
:100D30008091B00081608093B00080917A008460DF
:100D400080937A0080917A00826080937A0080910B
:100D50007A00816080937A0080917A008068809325
:100D60007A001092C10061E088E00E94680268EC9D
:100D700070E080E090E00E94EC0261E088E00E9478
:100D80009602E0916F01F091700182E08083E09122
:100D90006B01F0916C011082E0916D01F0916E0198
:100DA0008FEC808310927701E0917301F0917401D0
:100DB00086E08083E0917101F09172018081806111
:100DC0008083E0917101F09172018081886080835D
:100DD000E0917101F0917201808180688083E091DF
:100DE0007101F091720180818F7D808361E08AE0E2
:100DF0000E94960260E08BE00E94960261E08CE027
:100E00000E94960260E08DE00E94960280E094E4E9
:100E1000A6EBB6EC8093050290930602A09307021E
:100E2000B09308020E949F030BEC17E090E0292E7C
:100E300090E0392E8FE591E00E946701892B31F017
:100E40008FE591E00E9445018093000180910001AF
:100E5000843709F040C081E291E00E94F2030E94D1
:100E60004303C0900102D0900202E0900302F09090
:100E700004026C197D098E099F090E94670B20915D
:100E800005023091060240910702509108020E942B
:100E9000280D6B017C014B015C01AC019B010E94A0
:100EA000D50D882309F420C18AE291E00E94F20363
:100EB00086E391E00E94F20380E491E00E94F20355
:100EC0000E949F0380E3809300016AE070E080E06D
:100ED00090E00E94EC02809100018A37C1F46AE040
:100EE00070E080E090E00E94EC0260E088E00E9408
:100EF00068026AE070E080E090E00E94EC0283E427
:100F000091E00E94F20380E491E00E94F20380915C
:100F10000001803309F0DCC060E08AE00E946802D2
:100F2000C8010197F1F761E08AE00E946802C801F8
:100F30000197F1F760E08AE00E9468028BE00E946E
:100F4000CC030E94650B20E030E040E05FE30E94AC
:100F5000C60B2DEC3CEC48EE51E40E94280D9B01A1
:100F6000AC0160E070E085E593E40E94BB0C6B018E
:100F70007C0160E08CE00E946802C8010197F1F7F3
:100F800061E08CE00E946802C8010197F1F760E01F
:100F90008CE00E9468028DE00E94CC030E94650BE9
:100FA00020E030E040E05FE30E94C60B2DEC3CEC1B
:100FB00048EE51E40E94280D9B01AC0160E070E016
:100FC00085E593E40E94BB0C2B013C010E94430386
:100FD0008090010290900202A0900302B09004025F
:100FE000681979098A099B090E94670B20910502FB
:100FF0003091060240910702509108020E94280D8C
:101000004B015C018FE591E00E946701892B49F05B
:101010008FE591E00E9445018F7D843511F40E9497
:101020009F03B501A401CE0101960E94E804B3011B
:10103000A201CE0107960E94E804B701A601CE01E5
:1010400043960E94E8041E861D86188A1F861A8A07
:10105000198AEB88FC88E114F10469F0CF88D88CF8
:10106000B601CE010D960E9457048111CCC0CE016D
:101070000D960E944304CE010D960E94B204BE015B
:10108000695F7F4F0E947F040E94B204BE016F5FC0
:101090007F4F0E947F04FC014481558160817181F2
:1010A0008FE591E00E94090180E491E00E94F20343
:1010B0008D859E850E94BD0E8B899C890E94BD0EE8
:1010C0008F8198850E94BD0E89819A810E94BD0EF4
:1010D0002114310409F4AECE0E947301882309F46F
:1010E000A9CE0E940000A6CE26013701E89477F829
:1010F0002FEF3FEF4FE75FE7C301B2010E94D50D2D
:1011000081110DC02FEF3FEF4FE75FE7C301B20141
:101110000E94600B18161CF48EE291E0C7CE2FEFF0
:101120003FEF4FE75FE4C701B6010E94D00D1816EC
:101130001CF482E391E0BACE2FEF3FEF4FE75FEC74
:10114000C701B6010E94600B87FDF3CF20E030E0BD
:10115000A901C701B6010E94600B87FF0BC06DE2B9
:101160008FE591E00E94A90146015701B7FAB094BA
:10117000B7F8B0942EE632E143E05AE3C501B4017A
:101180000E94BC0C6B017C010E94A10D4B015C0113
:101190000E94650B9B01AC01C701B6010E94BB0C0C
:1011A0006B017C014AE0C501B4010E94FF036EE2BD
:1011B0008FE591E00E94A90184E0B82EBA94BB208B
:1011C00009F476CE20E030E040E251E4C701B601F8
:1011D0000E94C60B2B013C010E94A10D6B01F12C5A
:1011E000E12C4AE0C701B6010E94FF03C701B60126
:1011F0000E94650B9B01AC01C301B2010E94BB0CB4
:101200006B017C01DBCFDA8AC98AB7018D859E85A7
:101210000E940C1030CFEF920F931F93CF93DF9368
:10122000E80134E047FD34E1042E000C550B57FF74
:1012300003C0519541955109E32E022F242FAE0191
:101240000E942909CE01DF91CF911F910F91EF905C
:101250000895A9E0B0E0EFE2F9E00C948A0C6A018D
:10126000F22EB02E102FFBE3AF2EA01608F41BE3D6
:101270001F5F012F27E0AE014F5F5F4F0E94880A7A
:10128000BC018981982F9970913009F43FC09BE28D
:10129000E1FC04C09E2D9170E0FC3AC05E2D5071BF
:1012A000E82FE87083FF46C084E0911101C083E01D
:1012B000EF2DE81B8F1508F0E0E0D6018E2F20E21D
:1012C000552351F1992329F0D6019C93C60101962B
:1012D0006C0196012D5F3F4FE2FE24C08EE4D601E3
:1012E0008C9391E411969C93119712968C93D9014B
:1012F0008E2F90E281111BC0E20FF32FF11D10829F
:101300008EEF9FEF2996ECE00C94A60C9DE2C6CFE1
:1013100090E2C4CF2D9381508111FCCFCE0ED11C11
:10132000E0E0D0CF8EE6D6018C9391E6DBCF9D93A3
:101330008150E0CF482F447082FF3DC084E091117E
:1013400001C083E08F1510F4EF2DE81BD6018E2F1E
:1013500020E2552309F1992329F0D6019C93C60177
:1013600001966C0196012D5F3F4FE2FE1BC089E4A0
:10137000D6018C938EE411968C93119786E4129685
:101380008C93D9018E2F90E2882309F4B5CF9D93D9
:101390008150FACF2D9381508111FCCFCE0ED11CFC
:1013A000E0E0D9CF89E6D6018C938EE611968C9336
:1013B000119786E6E4CF9B0177FF02C030E020E082
:1013C000A1E0B0E0911102C0B0E0A0E0F9013196D7
:1013D000AE0FBF1F8B2C912CBB2009F461C05401B0
:1013E000EFEFAE1ABE0AAA0DBB1DFA161B0619F0C6
:1013F00014F04F2D4A1B511188C0E3FC59C07601EF
:10140000A42FB0E2A1114FC0C40ED11C992309F43E
:101410005BC040E0D6011196F60190836D01552323
:1014200009F448C0012F060F9A81582F507184FF8C
:1014300003C0913309F4015010160CF047C0093075
:1014400008F008E0EEE2FE2E5B01A01AB10885016B
:101450009194819491082F3F320729F4D601FC9290
:10146000F60131966F016217730794F102171307A3
:101470007CF5DB01A21BB30BAA24A394B12CAC0E08
:10148000BD1EAA0DBB1D11968C9121503109D601AC
:10149000119628153905F4F0F60180836D01DBCF34
:1014A000B12CA12CA0CFF701B1937F01A150AACFFD
:1014B0009111B0CFD601942F50E302C05D939150AB
:1014C0009111FCCFC40ED11C40E0ACCF01E0BACFEB
:1014D00080E3DBCF6217730731F4963388F49533DA
:1014E00011F4552369F0F6018083FD01842F90E209
:1014F000811108C0A40FB11D1C9290E080E002CFC2
:1015000081E3F1CF91938150F3CF911183CF8ACFB3
:10151000283008F027E03327DA01990F311D87FDC5
:10152000916000966105710539F432602E5F3D933C
:1015300030E32A95E1F708959F3F30F08038710538
:10154000610509F03C5F3C5F3D93913008F0806895
:10155000911DDF93CF931F930F93FF92EF92192F5B
:10156000987F9695E92F96959695E90FFF27EE536C
:10157000FF4F99273327EE24FF24A701E7010590A9
:101580000894079428F4360FE71EF81E491F511DD2
:10159000660F771F881F991F0694A1F7059007947F
:1015A00028F4E70EF81E491F561FC11D770F881F2C
:1015B000991F661F0694A1F70590079428F4F80E6A
:1015C000491F561FC71FD11D880F991F661F771F00
:1015D0000694A1F70590079420F4490F561FC71FE2
:1015E000D81F990F661F771F881F0694A9F784914B
:1015F0001095177041F0D695C79557954795F79474
:10160000E7941A95C1F7E8E6F0E068941590159113
:1016100035916591959105907FE27395E118F10AF6
:10162000430B560BC90BD009C0F7E10CF11E431F49
:10163000561FC91FD01D7EF4703311F48A95E6CF72
:10164000E894015030F0080F0AF40027021708F45C
:10165000202F2395022F7A3328F079E37D932A9562
:10166000E9F710C07D932A9589F6069497956795BA
:10167000379517951794E118F10A430B560BC90BD0
:10168000D00998F023957E9173957A3308F070E332
:101690007C932013B8F77E9170617D9330F0839531
:1016A00071E37D9370E32A95E1F71124EF90FF90A9
:1016B0000F911F91CF91DF91992787FD9095089504
:1016C0000E94A20B08F481E00895E89409C097FBFA
:1016D0003EF490958095709561957F4F8F4F9F4F09
:1016E0009923A9F0F92F96E9BB279395F69587954D
:1016F00077956795B795F111F8CFFAF4BB0F11F410
:1017000060FF1BC06F5F7F4F8F4F9F4F16C08823B6
:1017100011F096E911C0772321F09EE8872F762FEC
:1017200005C0662371F096E8862F70E060E02AF02D
:101730009A95660F771F881FDAF7880F9695879519
:1017400097F90895990F0008550FAA0BE0E8FEEFEE
:1017500016161706E807F907C0F012161306E40775
:10176000F50798F0621B730B840B950B39F40A266E
:1017700061F0232B242B252B21F408950A2609F44C
:10178000A140A6958FEF811D811D08950E94D90B60
:101790000C944A0C0E943C0C38F00E94430C20F040
:1017A000952311F00C94330C0C94390C11240C94E7
:1017B0007E0C0E945B0C70F3959FC1F3950F50E077
:1017C000551F629FF001729FBB27F00DB11D639FF3
:1017D000AA27F00DB11DAA1F649F6627B00DA11D99
:1017E000661F829F2227B00DA11D621F739FB00D3F
:1017F000A11D621F839FA00D611D221F749F3327AF
:10180000A00D611D231F849F600D211D822F762F47
:101810006A2F11249F5750409AF0F1F088234AF024
:10182000EE0FFF1FBB1F661F771F881F9150504090
:10183000A9F79E3F510580F00C94330C0C947E0C5C
:101840005F3FE4F3983ED4F3869577956795B79517
:10185000F795E7959F5FC1F7FE2B880F911D969531
:10186000879597F9089597F99F6780E870E060E0A1
:1018700008959FEF80EC089500240A941616170629
:1018800018060906089500240A9412161306140671
:1018900005060895092E0394000C11F4882352F0D4
:1018A000BB0F40F4BF2B11F460FF04C06F5F7F4F8C
:1018B0008F4F9F4F089557FD9058440F551F59F073
:1018C0005F3F71F04795880F97FB991F61F09F3F2D
:1018D00079F087950895121613061406551FF2CF56
:1018E0004695F1DF08C0161617061806991FF1CFA6
:1018F00086957105610508940895E894BB276627CD
:101900007727CB0197F908952F923F924F925F92DC
:101910006F927F928F929F92AF92BF92CF92DF92FF
:10192000EF92FF920F931F93CF93DF93CDB7DEB764
:10193000CA1BDB0B0FB6F894DEBF0FBECDBF0994F8
:101940002A88398848885F846E847D848C849B844F
:10195000AA84B984C884DF80EE80FD800C811B815D
:10196000AA81B981CE0FD11D0FB6F894DEBF0FBE8C
:10197000CDBFED0108955058BB27AA270E94D30C74
:101980000C944A0C0E943C0C38F00E94430C20F04E
:1019900039F49F3F19F426F40C94390C0EF4E095B9
:1019A000E7FB0C94330CE92F0E945B0C58F3BA1739
:1019B000620773078407950720F079F4A6F50C9465
:1019C0007D0C0EF4E0950B2EBA2FA02D0B01B90162
:1019D00090010C01CA01A0011124FF27591B99F0A5
:1019E000593F50F4503E68F11A16F040A22F232FB1
:1019F000342F4427585FF3CF469537952795A79501
:101A0000F0405395C9F77EF41F16BA0B620B730BA7
:101A1000840BBAF09150A1F0FF0FBB1F661F771F18
:101A2000881FC2F70EC0BA0F621F731F841F48F4CD
:101A3000879577956795B795F7959E3F08F0B0CF56
:101A40009395880F08F09927EE0F9795879508953D
:101A50000E943C0D0C944A0C0E94430C58F00E94CA
:101A60003C0C40F029F45F3F29F00C94330C5111E9
:101A70000C947E0C0C94390C0E945B0C68F3992337
:101A8000B1F3552391F3951B550BBB27AA2762177A
:101A90007307840738F09F5F5F4F220F331F441F87
:101AA000AA1FA9F335D00E2E3AF0E0E832D09150BB
:101AB0005040E695001CCAF72BD0FE2F29D0660FA8
:101AC000771F881FBB1F261737074807AB07B0E8EB
:101AD00009F0BB0B802DBF01FF2793585F4F3AF0F1
:101AE0009E3F510578F00C94330C0C947E0C5F3FB4
:101AF000E4F3983ED4F3869577956795B795F79577
:101B00009F5FC9F7880F911D9695879597F908955E
:101B1000E1E0660F771F881FBB1F621773078407FA
:101B2000BA0720F0621B730B840BBA0BEE1F88F709
:101B3000E09508950E94A10D6894B1110C947E0C5B
:101B400008950E94630C88F09F5798F0B92F992749
:101B5000B751B0F0E1F0660F771F881F991F1AF098
:101B6000BA95C9F714C0B13091F00E947D0CB1E074
:101B700008950C947D0C672F782F8827B85F39F073
:101B8000B93FCCF3869577956795B395D9F73EF431
:101B900090958095709561957F4F8F4F9F4F0895D9
:101BA0000E94A20B08F48FEF08950E94A20B880BED
:101BB000990B0895A1E21A2EAA1BBB1BFD010DC0B3
:101BC000AA1FBB1FEE1FFF1FA217B307E407F507ED
:101BD00020F0A21BB30BE40BF50B661F771F881FC9
:101BE000991F1A9469F760957095809590959B015F
:101BF000AC01BD01CF010895052E97FB1EF40094A2
:101C00000E94130E57FD07D00E94DA0D07FC03D087
:101C10004EF40C94130E50954095309521953F4FFE
:101C20004F4F5F4F089590958095709561957F4FC8
:101C30008F4F9F4F0895EE0FFF1F0590F491E02DF9
:101C400009940F931F93CF93DF938230910510F483
:101C500082E090E0E0910B02F0910C0230E020E095
:101C6000B0E0A0E0309799F42115310509F44AC09D
:101C7000281B390B24303105D8F58A819B816115E9
:101C8000710589F1FB0193838283FE0111C04081BC
:101C900051810281138148175907E0F0481759070D
:101CA00099F4109761F012960C93129713961C9367
:101CB0003296CF01DF91CF911F910F91089500933C
:101CC0000B0210930C02F4CF2115310551F042178D
:101CD000530738F0A901DB019A01BD01DF01F801CA
:101CE000C1CFEF01F9CF90930C0280930B02CDCFBF
:101CF000FE01E20FF31F8193919322503109398342
:101D00002883D7CF2091090230910A02232B41F476
:101D1000209103013091040130930A0220930902BB
:101D200020910101309102012115310541F42DB7B7
:101D30003EB74091050150910601241B350BE091FF
:101D40000902F0910A02E217F307A0F42E1B3F0BE1
:101D50002817390778F0AC014E5F5F4F241735071D
:101D600048F04E0F5F1F50930A024093090281937F
:101D700091939FCFF0E0E0E09CCFCF93DF9300976B
:101D8000E9F0FC01329713821282A0910B02B0910C
:101D90000C02ED0130E020E01097A1F420813181A8
:101DA000820F931F2091090230910A0228173907E8
:101DB00009F061C0F0930A02E0930902DF91CF912C
:101DC0000895EA01CE17DF07E8F54A815B819E019D
:101DD00041155105B1F7E901FB83EA834991599116
:101DE000C40FD51FEC17FD0761F480819181029625
:101DF000840F951FE90199838883828193819B8356
:101E00008A83F0E0E0E012968D919C911397009701
:101E1000B9F52D913C911197CD010296820F931F38
:101E20002091090230910A022817390739F63097B4
:101E300051F510920C0210920B02B0930A02A0937B
:101E40000902BCCFD383C28340815181840F951F87
:101E5000C817D90761F44E5F5F4F88819981480F99
:101E6000591F518340838A819B81938382832115EB
:101E7000310509F0B0CFF0930C02E0930B029ECF36
:101E8000FD01DC01C0CF13821282D7CFB0E0A0E009
:101E9000ECE4FFE00C94860C8C01009751F4CB012C
:101EA0000E94210E8C01C801CDB7DEB7E0E10C9491
:101EB000A20CFC01E60FF71F9C0122503109E2172A
:101EC000F30708F49DC0D901CD91DC911197C61795
:101ED000D70798F0C530D10530F3CE0104978617A7
:101EE000970708F3C61BD70B2297C193D1936D9325
:101EF0007C93CF010E94BD0ED6CF5B01AC1ABD0A08
:101F00004C018C0E9D1EA0910B02B0910C02512C25
:101F1000412CF12CE12C109731F580910902909120
:101F20000A028815990509F05CC04616570608F0A4
:101F300058C08091010190910201009741F48DB742
:101F40009EB74091050150910601841B950BE8173F
:101F5000F90708F055C0F0930A02E0930902F9016D
:101F600071836083A0CF8D919C91119712966C9094
:101F7000129713967C901397A815B90559F56C0123
:101F800042E0C40ED11CCA14DB0420F1AC014A1992
:101F90005B09DA011296159780F062827382518391
:101FA0004083D9016D937C93E114F10471F0D70162
:101FB0001396FC93EE93129776CF22968C0F9D1F6B
:101FC000F90191838083F301EFCFF0930C02E0934A
:101FD0000B0269CF4816590608F42C017D01D30184
:101FE0009ACFCB010E94210E7C01009749F0AE01EF
:101FF000B8010E940310C8010E94BD0E870153CF93
:1020000010E000E050CFFB01DC0102C001900D9216
:1020100041505040D8F70895FB01DC0101900D922A
:0A2020000020E1F70895F894FFCFC7
:10202A003000000D02800000000000A901090136FD
:10203A0001F601670145015901000000001E035520
:10204A00045765696768743A20006E616E00696EAC
:10205A0066006F766600204B696C6F6772616D006F
:10206A000D0A006D697373696F6E5F696D706F73C6
:06207A007369626C650051
:00000001FF
